:020000040000fa
:080000000001040000000000f3
:020000040000fa
:04000800f6010000fd
:020000040000fa
:04000c00f6010000f9
:020000040000fa
:04001000f6010000f5
:020000040000fa
:04001400f6010000f1
:020000040000fa
:04001800f6010000ed
:020000040000fa
:04001c00f6010000e9
:020000040000fa
:04002000f6010000e5
:020000040000fa
:04002400f6010000e1
:020000040000fa
:04002800f6010000dd
:020000040000fa
:04002c00f6010000d9
:020000040000fa
:04003000f6010000d5
:020000040000fa
:04003400f6010000d1
:020000040000fa
:04003800f6010000cd
:020000040000fa
:04003c00f6010000c9
:020000040000fa
:04004000f6010000c5
:020000040000fa
:04004400f6010000c1
:020000040000fa
:04004800f6010000bd
:020000040000fa
:04004c00f6010000b9
:020000040000fa
:04005000f6010000b5
:020000040000fa
:04005400f6010000b1
:020000040000fa
:04005800f6010000ad
:020000040000fa
:04005c00f6010000a9
:020000040000fa
:04006000f6010000a5
:020000040000fa
:04006400f6010000a1
:020000040000fa
:04006800f60100009d
:020000040000fa
:04006c00f601000099
:020000040000fa
:04007000f601000095
:020000040000fa
:04007400f601000091
:020000040000fa
:04007800f60100008d
:020000040000fa
:04007c00f601000089
:020000040000fa
:04008000f601000085
:020000040000fa
:04008400f601000081
:020000040000fa
:04008800c8010000ab
:020000040000fa
:04008c00f601000079
:020000040000fa
:04009000f601000075
:020000040000fa
:04009400f601000071
:020000040000fa
:04009800f60100006d
:020000040000fa
:04009c00f601000069
:020000040000fa
:0400a000f601000065
:020000040000fa
:0400a400f601000061
:020000040000fa
:0400a800f60100005d
:020000040000fa
:0400ac00f601000059
:020000040000fa
:0400b000f601000055
:020000040000fa
:0400b400f601000051
:020000040000fa
:0400b800f60100004d
:020000040000fa
:0400bc00f601000049
:020000040000fa
:0400c000f601000045
:020000040000fa
:0400c400f601000041
:020000040000fa
:0400c800f60100003d
:020000040000fa
:0400cc00f601000039
:020000040000fa
:0400d000f601000035
:020000040000fa
:0400d400f601000031
:020000040000fa
:0400d800f60100002d
:020000040000fa
:04010800f6010000fc
:020000040000fa
:04010c00f6010000f8
:020000040000fa
:04011000f6010000f4
:020000040000fa
:04011400f6010000f0
:020000040000fa
:04011800f6010000ec
:020000040000fa
:04011c00f6010000e8
:020000040000fa
:04012000f6010000e4
:020000040000fa
:04012400f6010000e0
:020000040000fa
:04012800f6010000dc
:020000040000fa
:04012c00f6010000d8
:020000040000fa
:04013000f6010000d4
:020000040000fa
:04013400f6010000d0
:020000040000fa
:04013800f6010000cc
:020000040000fa
:04013c00f6010000c8
:020000040000fa
:04014000f6010000c4
:020000040000fa
:04014400f6010000c0
:020000040000fa
:04014800f6010000bc
:020000040000fa
:04014c00f6010000b8
:020000040000fa
:04015000f6010000b4
:020000040000fa
:04015400f6010000b0
:020000040000fa
:04015800f6010000ac
:020000040000fa
:04015c00f6010000a8
:020000040000fa
:04016000f6010000a4
:020000040000fa
:04016400f6010000a0
:020000040000fa
:04016800f60100009c
:020000040000fa
:04016c00f601000098
:020000040000fa
:04017000f601000094
:020000040000fa
:04017400f601000090
:020000040000fa
:04017800f60100008c
:020000040000fa
:04017c00f601000088
:020000040000fa
:04018000f601000084
:020000040000fa
:04018400f601000080
:020000040000fa
:04018800f60100007c
:020000040000fa
:04018c00f601000078
:020000040000fa
:04019000f601000074
:020000040000fa
:04019400f601000070
:020000040000fa
:04019800f60100006c
:020000040000fa
:04019c00f601000068
:020000040000fa
:0401a000f601000064
:020000040000fa
:0401a400f601000060
:020000040000fa
:0401a800f60100005c
:020000040000fa
:0401ac00f601000058
:020000040000fa
:0401b000f601000054
:020000040000fa
:0401b400f601000050
:020000040000fa
:0401b800f60100004c
:020000040000fa
:0401bc00f601000048
:020000040000fa
:0401c000f601000044
:020000040000fa
:0401c400f601000040
:020000040000fa
:0401c800f60100003c
:020000040000fa
:0401cc00f601000038
:020000040000fa
:0401d000f601000034
:020000040000fa
:0401d400f601000030
:020000040000fa
:0401d800f60100002c
:020000040000fa
:100200008f8520000eff20000e01880000000000f6
:10021000000020000000e000020032000001200089
:100220002002880014000700720007000000e000b0
:1002300003003a0000802000010020000200370087
:100240000000200001002000810f7000010032003a
:1002500014000700000020000000e000020032004f
:100260000000020000000000c007020000000000c3
:100270000040da000000fe004440a9000000200019
:100280000000e0000300320000002000a001880010
:100290004440a800000006008a1f78008b1f7800e9
:1002a0000000060091018800800478000000eb0047
:1002b0001a003700e284440032a0b4009905ba0065
:1002c000e284440032a0b4009906ba00e2844400fb
:1002d00032a0b4000006eb00476fde00fd07b2005d
:1002e000636ce10003003a00ebff07000000eb0045
:1002f0000a003700606ce10004003a00005deb008a
:100300008b05e900fdff3e00040037006168e10055
:10031000010032000086eb000b00070019c7ba008d
:100320001905ba000e04e00003003a000a00e000dc
:10033000e0ff3a0000000600fe07b2009e018800c0
:100340008a047800f5ff3700395dba008b05e900b3
:100350000c003200295dba008b05e900080032006c
:100360000c00e00003003a00e284440032a0b40034
:10037000f5ff370019ddba008b05e900faff3a00f6
:100380008904e800e184440032a0b40000000600c3
:100390003600f800809fbe00829fbe00849fbe0092
:1003a000869fbe003400f80000002000a0018800f5
:1003b0000200fa008700a900e0108000004f7800da
:1003c0009e40780000802000230207000080fa0091
:1003d0003400f9004f03be004f02be004f01be00c3
:1003e0004f00be003600f900004006000040da0071
:1003f0000000fe00000005000001be002200070012
:100400000470a70003f0a1006509b10016003200d6
:100410000d0035006828e10006003500f0ff2f00d0
:10042000f1ff27000300e00013003b00010028005b
:100430000000050000004000818048008502e900be
:10044000fcff3a0008003700f88f420002003c0031
:100450008000eb00000005008100d1000080d30087
:100460008502e800fcff3a000300e00002003b00c8
:1004700060001000e0801800000006004f89de00d8
:100480008201780049003700c70ade00f107b20098
:10049000f50fb20008003200e1cf42000200320046
:1004a0000170a00024000500810f700001003200df
:1004b0000408050044000500810f700002003a00a6
:1004c000140005008502e9000000400081c04800da
:1004d000fcff3b000170a00024000500889fbe00c7
:1004e0008a9fbe008c1f7800950007009c00330097
:1004f00003866c006450e100240032006420e100b7
:10050000270032006150e100220032006120e1004a
:10051000210032008b854200eb07b1000134b800a6
:10052000003ab8000804420089844a00013ab80041
:100530000030b8008880400009014a000400330000
:100540000000400081804800020149008b05e9005d
:10055000c909dd0083017000010032001300200092
:10056000c814de004814dd004709de001200b200a6
:10057000c808de00088470004b00070001f0a100ed
:100580000cf0a70001f0a0007e0037006120e10020
:10059000800032000801be000200be00f7ff3700f5
:1005a0006150e100fcff3a007a003700881f7800b4
:1005b000030478000300e00007003d006000100025
:1005c000e080180060011900e081190002003b0082
:1005d00001f02d00030037000400070008f0a70019
:1005e00001f0a0004f04780000000600889fbe00c4
:1005f0008a9fbe00008270000402710004827100b4
:10060000260032000004be000200be006011b800e7
:100610006b092000950220000182cf000a003900fa
:100620000541b1000082cf00070039000541b1004b
:100630000982cf00040039000541b1000882cf00d3
:10064000010039000541b10005425200120032009c
:100650000a003b0082817100610164008100d100c9
:100660000080d3008984d3000884d3008b05e80080
:100670000442e800f7ff3a0007003700080444008e
:1006800089844c0000004800818048008b05e90007
:100690000442e900f9ff3a00030007004f05be00dd
:1006a0004f04be000000060081002000618055005c
:1006b0000b003d000b00200061fe2f000100e10057
:1006c0001d00340082817100610164008904d10041
:1006d0000884d3000000e800faff3a00710020000f
:1006e0006100640003007000020060000900320035
:1006f00061044400e0844c000988a5000500320034
:100700008b05e8006808e10002003a008904d10086
:100710000884d300f20f20000258e10005003d00dc
:10072000c75ddd00f907b200898075000800780018
:10073000000006000bf827008b0078000000050081
:100740000004be0050ff07000003be000405be0009
:100750000200be004cff0700844f75000000060039
:100760000200be006450e100050036006420e10094
:10077000020036000968a30001003a000800be002c
:100780000160a0004f0678004f05be004f04be0078
:1007900000000600f0ff2f00f1ff2700f9ff3700ef
:020000040000fa
:1007a0000a00fa00889fbe008a9fbe008c9fbe0090
:1007b0002007980031079800420798002e0090000b
:1007c000cf80de002dff070062662600634e240006
:1007d00042ff070008ff0700008fbe00f0ff2f0058
:1007e000010020001e01be00800f5100818f5900c2
:1007f00007003c003e0090008000eb0001087800fc
:100800009e0078004e0090000108780042003700fa
:100810001e00be00e00f5000e08f580002003d00b7
:1008200067004000e08048004d09dd004306de001f
:100830000c067100c38ede000c8fbe00f0ff2f008f
:10084000010020001e01be00800f5100818f590061
:1008500007003c003e0090001100200001087800d5
:100860009e0078004e009000010878002a003700b2
:100870001e00be00e00f5000e08f580002003d0057
:1008800067004000e08048004d09dd004305de00c0
:100890000a057100c38dde000a8fbe00f0ff2f0035
:1008a000010020001e01be00800f5100818f590001
:1008b00007003c003e009000210020000108780065
:1008c0009e0078004e00900001087800120037006a
:1008d0001e00be00e00f5000e08f580002003d00f7
:1008e00063004000e08048004e09dd004204de0065
:1008f00008047100c28cde00088fbe003e0090002c
:1009000031002000010878009e0078004e00900021
:1009100001087800000000004f06be004f05be0031
:100920004f04be000080fa00000006000600fa0036
:100930002007980005e1a9000021ef000e80e800e3
:10094000000178008e0078002e00900094ff0700d0
:100950001e00780000407800634060000080fb00cb
:10096000630060004400dd0022088000f1fc2f00dd
:100970008100610001007000200888001e009000c6
:100980001008880005e1a8000080fa0000000600b9
:100990000000fa00000000002004800068006000f1
:1009a0000000e000fcff32008460a9000080fa0033
:1009b000000006000600fa002007980011e1a900d7
:1009c0000e80e800000178008e0078002e00900074
:1009d00073ff07000621ef001e007800004078003a
:1009e000634060000080fb00630060004400dd00a5
:1009f00082088000f1fc2f0081006100010070007e
:100a0000800888001e0090006008880011e1a8009e
:100a1000000000002104800000042000008060002d
:100a20000000e000fbff320084c0a90011e1a90032
:100a30000080fa00000006000800fa002007980075
:100a4000310798000e80e800000178008e007800e1
:100a50003e00900052ff07002e009000e10f500072
:100a600003003200e20f5000110032002000370076
:100a70000021ef001e007800004078006340600015
:100a80000080fb00630060004400dd00220880005d
:100a9000f1fc2f0081006100010070002008880037
:100aa0001e0090001008880005e1a8001000370023
:100ab0000621ef001e0078000040780063406000cf
:100ac0000080fb00630060004400dd0082088000bd
:100ad000f1fc2f0081006100010070008008880097
:100ae0001e0090006008880011e1a80000000000ce
:100af0000080fa00000006000200fa00000f7800f3
:100b00001e007800e10f500003003200e20f500099
:100b1000080032000f0037000000000020048000b1
:100b2000680060000000e000fcff32008460a90063
:100b300008003700000000002104800000042000ad
:100b4000008060000000e000fbff320084c0a900cc
:100b5000000000000080fa00000006000200fa0019
:100b6000004f78000000000000118000620060006b
:100b70000000e000fcff3a001e00fb00201188008e
:100b80000080fa00000006000600fa001007980036
:100b9000210798000000eb00000f78000000eb0038
:100ba000000f7800060037001e0078009e009000bd
:100bb0000080400010407800e8ff07001e0fe800aa
:100bc0001e0078009e0090000080400010407800d9
:100bd0000004e000040032002e0090009e00780027
:100be000808f5000f0ff35000080fa000000060002
:100bf0000000fa0000c8b300d8ff07000080fa0028
:100c0000000006000000fa0000ccb300d3ff07008c
:100c10000080fa00000006000200fa00f4ff07005e
:100c20000000eb00000f78000000eb00000f7800e0
:100c30000300370000c2b300c8ff07001e0fe80022
:100c40001e007800ef0f5000faff3400e8ff0700a5
:100c50000080fa00000006000400fa00000f78008f
:100c6000214798001e007800701890009e007800c0
:100c70002e419000827078001e007800701890005d
:100c80008000e8001e007800711898001e007800af
:100c9000f0189000c0032000808f500003003a003d
:100ca0001e0078008000eb00711898000080fa00a8
:100cb000000006000400fa00000f780011079800f9
:100cc0008f00a9001e007800e01890001e00780038
:100cd00070189000808f500003003a008f00a80029
:100ce0000000eb00150037001e007800601890002f
:100cf0009e007800e14078001e00900001487800d6
:100d00001e007800601890008000e8001e00780047
:100d1000611898001e007800e0189000c0032000c1
:100d2000808f500003003a001e0078008000eb0026
:100d3000611898008f00a800100020000080fa00c1
:100d4000000006000600fa00200798008f00a900a6
:100d50002e009000f0189000010f78002e009000f7
:100d6000e0189000110798008f00a8001e00900066
:100d70009e007800808f5000030035001e00900018
:100d80001e001000030037001e0090001e0010001f
:100d9000c003b0000080fa00000006000000fa0066
:100da0000080fa00000006000400fa000e80e8004f
:100db0008000780000802000beff0700000f780050
:100dc0000080fa00000006000000fa000080fa002f
:100dd000000006000000fa000080fa000000060093
:100de0000000fa000080fa00000006000000fa008f
:100df0000080fa00000006000200fa000000eb008c
:100e0000000f78003c0037001e007800c200dd00b3
:100e10000084200000804000100078008000e8007e
:100e20001e0078004201dd00008420000000410027
:100e3000010878001e007800c200dd000084200058
:100e400000804000900078001e0078004200dd0025
:100e50000081e800008420000000410010007800bc
:100e6000808f500023003a001e007800e20f5000ef
:100e700012003200e20f500005003c000000e000cc
:100e80000a003200e10f50000a0032001300370060
:100e9000e40f50000d003200e40f5000090035004f
:100ea000e50f50000b0032000c003700bbff0700bd
:100eb0000a003700bcff070008003700c2ff070028
:100ec00006003700c3ff070004003700c4ff070017
:100ed00002003700c5ff0700000000001e00780078
:100ee000c200dd0000842000008040008000eb0094
:100ef000010878001e0fe8001e007800e50f500082
:100f0000c1ff34000080fa00000006000000fa0073
:100f1000b0002000f010880017e2a8001942a800d5
:100f20008f00a80022a2a8002342a900101180006f
:100f30003000b300101188001111800030fe2f0026
:100f4000008060008001b3001011880021e2a80039
:100f5000813e200010002000b7fe07001000200096
:100f6000e5fe07004106200010002000b2fe070049
:100f7000c602a900ca02a9000080fa00000006000b
:100f80007000fa003e28ef003c28ef00100020001f
:100f9000000f78000000eb00603798000000eb00c5
:100fa00070379800d9ff07004028ef004428ef0071
:100fb0004828ef004c28ef005028ef005428ef009d
:100fc00010002000104288001000200030428800ed
:100fd0001000200050428800a000200050428800ed
:100fe000200020005042880010002000504288005d
:100ff00081ff070010002000bffe0700fcff370044
:020000040000fa
:101000000008000058000000000000000000000080
:020000040000fa
:0200000401f009
:04000000f4bf000049
:020000040000fa
:0200000401f009
:04000400ff7f00007a
:020000040000fa
:0200000401f009
:04000800ffff0000f6
:020000040000fa
:0200000401f009
:04001400ffff0000ea
:020000040000fa
:0200000401f009
:04001800ffff0000e6
:00000001FF
