:020000040000fa
:080000000001040000000000f3
:020000040000fa
:040008007202000080
:020000040000fa
:04000c00720200007c
:020000040000fa
:040010007202000078
:020000040000fa
:040014007202000074
:020000040000fa
:040018007202000070
:020000040000fa
:04001c00720200006c
:020000040000fa
:040020007202000068
:020000040000fa
:040024007202000064
:020000040000fa
:04002800dc010000f7
:020000040000fa
:04002c00720200005c
:020000040000fa
:040030007202000058
:020000040000fa
:040034007202000054
:020000040000fa
:040038007202000050
:020000040000fa
:04003c00720200004c
:020000040000fa
:040040002402000096
:020000040000fa
:040044007202000044
:020000040000fa
:040048007202000040
:020000040000fa
:04004c00720200003c
:020000040000fa
:040050007202000038
:020000040000fa
:040054007202000034
:020000040000fa
:040058007202000030
:020000040000fa
:04005c00720200002c
:020000040000fa
:040060007202000028
:020000040000fa
:040064007202000024
:020000040000fa
:040068000002000092
:020000040000fa
:04006c00720200001c
:020000040000fa
:040070007202000018
:020000040000fa
:040074007202000014
:020000040000fa
:040078007202000010
:020000040000fa
:04007c00720200000c
:020000040000fa
:040080007202000008
:020000040000fa
:040084007202000004
:020000040000fa
:04008800440200002e
:020000040000fa
:04008c0072020000fc
:020000040000fa
:0400900072020000f8
:020000040000fa
:0400940072020000f4
:020000040000fa
:0400980072020000f0
:020000040000fa
:04009c0072020000ec
:020000040000fa
:0400a00072020000e8
:020000040000fa
:0400a40072020000e4
:020000040000fa
:0400a80072020000e0
:020000040000fa
:0400ac0072020000dc
:020000040000fa
:0400b00072020000d8
:020000040000fa
:0400b40072020000d4
:020000040000fa
:0400b80072020000d0
:020000040000fa
:0400bc0072020000cc
:020000040000fa
:0400c00072020000c8
:020000040000fa
:0400c40072020000c4
:020000040000fa
:0400c80072020000c0
:020000040000fa
:0400cc0072020000bc
:020000040000fa
:0400d00072020000b8
:020000040000fa
:0400d40072020000b4
:020000040000fa
:0400d80072020000b0
:020000040000fa
:04010800720200007f
:020000040000fa
:04010c00720200007b
:020000040000fa
:040110007202000077
:020000040000fa
:040114007202000073
:020000040000fa
:04011800720200006f
:020000040000fa
:04011c00720200006b
:020000040000fa
:040120007202000067
:020000040000fa
:040124007202000063
:020000040000fa
:04012800720200005f
:020000040000fa
:04012c00720200005b
:020000040000fa
:040130007202000057
:020000040000fa
:040134007202000053
:020000040000fa
:04013800720200004f
:020000040000fa
:04013c00720200004b
:020000040000fa
:040140007202000047
:020000040000fa
:040144007202000043
:020000040000fa
:04014800720200003f
:020000040000fa
:04014c00720200003b
:020000040000fa
:040150007202000037
:020000040000fa
:040154007202000033
:020000040000fa
:04015800720200002f
:020000040000fa
:04015c00720200002b
:020000040000fa
:040160007202000027
:020000040000fa
:040164007202000023
:020000040000fa
:04016800720200001f
:020000040000fa
:04016c00720200001b
:020000040000fa
:040170007202000017
:020000040000fa
:040174007202000013
:020000040000fa
:04017800720200000f
:020000040000fa
:04017c00720200000b
:020000040000fa
:040180007202000007
:020000040000fa
:040184007202000003
:020000040000fa
:0401880072020000ff
:020000040000fa
:04018c0072020000fb
:020000040000fa
:0401900072020000f7
:020000040000fa
:0401940072020000f3
:020000040000fa
:0401980072020000ef
:020000040000fa
:04019c0072020000eb
:020000040000fa
:0401a00072020000e7
:020000040000fa
:0401a40072020000e3
:020000040000fa
:0401a80072020000df
:020000040000fa
:0401ac0072020000db
:020000040000fa
:0401b00072020000d7
:020000040000fa
:0401b40072020000d3
:020000040000fa
:0401b80072020000cf
:020000040000fa
:0401bc0072020000cb
:020000040000fa
:0401c00072020000c7
:020000040000fa
:0401c40072020000c3
:020000040000fa
:0401c80072020000bf
:020000040000fa
:0401cc0072020000bb
:020000040000fa
:0401d00072020000b7
:020000040000fa
:0401d40072020000b3
:020000040000fa
:0401d80072020000af
:020000040000fa
:10020000cf9f20000eff20000e018800000000009c
:10021000000020000000e000020032000001200089
:100220002002880014000700b00007000000e00072
:1002300003003a00000f23000100200002003700f5
:100240000000200001002000810f7000010032003a
:1002500014000700000020000000e000020032004f
:100260000000020000000000722f020000000000e9
:100270000040da000000fe004440a9008008200091
:100280000000e0000300320000002000a001880010
:100290004440a800000006008a1f78008b1f7800e9
:1002a0000000060091018800800478000000eb0047
:1002b0001a003700e284440032a0b4009905ba0065
:1002c000e284440032a0b4009906ba00e2844400fb
:1002d00032a0b4000006eb00476fde00fd07b2005d
:1002e000636ce10003003a00ebff07000000eb0045
:1002f0000a003700606ce10004003a00005deb008a
:100300008b05e900fdff3e00040037006168e10055
:10031000010032000086eb000b00070019c7ba008d
:100320001905ba000e04e00003003a000a00e000dc
:10033000e0ff3a0000000600fe07b2009e018800c0
:100340008a047800f5ff3700395dba008b05e900b3
:100350000c003200295dba008b05e900080032006c
:100360000c00e00003003a00e284440032a0b40034
:10037000f5ff370019ddba008b05e900faff3a00f6
:100380008904e800e184440032a0b40000000600c3
:10039000000000000000000000000000000000005d
:1003a000000000000000000000000000000000004d
:1003b00000000000000000003600f800809fbe0032
:1003c000829fbe00849fbe00869fbe003400f8005e
:1003d00000002000a00188000000fa00b11607000c
:1003e0000080fa003400f9004f03be004f02be0047
:1003f0004f01be004f00be003600f900004006006d
:100400003600f800809fbe00829fbe00849fbe0021
:10041000869fbe003400f80000002000a001880084
:100420000000fa009f1607000080fa003400f9006f
:100430004f03be004f02be004f01be004f00be0082
:100440003600f90000400600801f78003400f800f4
:1004500000002000a00188000000fa0084c0a9006c
:1004600011e1a9001000200000408800ca22a80065
:10047000ce28ef00d028ef000080fa003400f90009
:100480004f007800004006003600f800809fbe0054
:10049000829fbe00849fbe00869fbe003400f8008d
:1004a00000002000a00188000200fa008700a900d7
:1004b000e0108000004f78009e407800a08120006e
:1004c000fc1307000080fa003400f9004f03be005f
:1004d0004f02be004f01be004f00be003600f900c3
:1004e000004006000040da000000fe0000000500a9
:1004f00003f0a200889fbe008a9fbe008c1f780078
:1005000019010700200133006450e1004f00320060
:100510006420e1005200320003826c0007003b00bf
:100520000905d0000306d000820f54000c065d00c0
:1005300002003900020032008901780003067800c9
:100540008582550004003d000003fd008103fd008d
:100550008502ea008b854200840f720002003b0096
:1005600060001000e08018006011b8000005eb008a
:100570007a28e1000a00390006007800c75ddd0036
:10058000f707b200878075002d0037008281710067
:100590000a017800610560008180d1000080d300ed
:1005a0008502e900f9ff3b0006044000878448000b
:1005b00002003b0060041400e0841c000988a300d2
:1005c000070032008a81710082817100610164003c
:1005d0008904d1000884d3008b05e8001700370098
:1005e0000978a30013003a000b00e0001300340068
:1005f0008b05e9000804440089844c000a44740017
:100600000978a3000d003a000b00e0000700340059
:100610008b05e9000804440089844c0001003a007d
:100620000b0020000978a300f7ff32000001eb0067
:1006300002003700828171000a0178008f000700f4
:100640000cf0a70001f0a000d80037006420e10002
:1006500002003a00838f6c00d80033000801be000e
:100660000200be00d1003700889fbe008a9fbe00f6
:100670008c1f7800bc000700c300330003866c00a9
:100680006450e1002e0032006420e10033003200ab
:100690006150e1002f0032006120e10031003200a2
:1006a00085855500eb07b0000900200008042000f4
:1006b000050037000804440089844c000a0031001a
:1006c0000603430087834b000001530081815b00d8
:1006d000f8ff33000203be000800a0000804440035
:1006e00089844c00f6ff3900c639dd0083017300b0
:1006f00001003200130020008904d1000884d300d7
:100700000998a300050032000800a7000300a0001c
:100710008904d1000884d3008b05e8008904d10046
:100720000884d3000001eb000281d20053000700cf
:1007300001f0a1000cf0a70001f0a0009b00370021
:100740006420e1009d0032000801be000200be00ee
:10075000f7ff37006120e100980032006000b80028
:10076000f3ff37000000200001f82700f0ff3700fa
:1007700014002000c80037000001be00650007001b
:100780000470a70003f0a1006509b1001600320053
:100790000d0035006828e10006003500f0ff2f004d
:1007a000f1ff27000300e00013003b0001002800d8
:1007b0000000050000004000818048008502e9003b
:1007c000fcff3a0008003700f88f420002003c00ae
:1007d0008000eb00000005008100d1000080d30004
:1007e0008502e800fcff3a000300e00002003b0045
:1007f00060001000e0801800000006000001be004c
:10080000440007000470a70003f0a10003f8a30050
:1008100013003a006509b1001000320009003500ec
:100820006928e100020035000100280000000500f1
:1008300000004000818048008502e900fcff3a008a
:1008400000000600f88f4200050035008100d1004d
:100850000080d3008502e800fcff3a00000006009b
:100860008000eb00000005004f89de008201780067
:10087000a40037006011b800b200370081002000ea
:10088000618055000b003d000b00200061fe2f0031
:100890000100e1001d0034008281710061016400eb
:1008a0008904d1000884d3000000e800faff3a0070
:1008b000710020006100640003007000020060000d
:1008c0000900320061044400e0844c000988a5005e
:1008d000050032008b05e8006808e10002003a00dc
:1008e0008904d1000884d300f20f20000258e100ef
:1008f00005003d00c75ddd00f907b2008980750085
:1009000008007800000006000bf827008b00780034
:1009100000000500c70ade00f107b200f50fb200c3
:1009200008003200e1cf4200020032000170a00056
:1009300024000500810f700001003200040805004a
:1009400044000500810f700002003a001400050009
:100950008502e9000000400081c04800fcff3b0028
:100960000170a000240005000004be00e9ff07009c
:100970000003be000405be000200be00e5ff070044
:10098000844f7500000006000200be006450e100c4
:10099000050036006420e100020036000968a3006b
:1009a00001003a000800be000160a0004f06780078
:1009b0004f05be004f04be0000000600f0ff2f00f0
:1009c000f1ff2700f9ff3700889fbe008a9fbe0015
:1009d0008c1f7800e4ff0700ebff330003866c00f8
:1009e0006450e100240032006420e100270032005e
:1009f0006150e100220032006120e100210032005c
:100a00008b854200eb07b1000134b800003ab80012
:100a10000804420089844a00013ab8000030b80056
:100a20008880400009014a000400330000004000b3
:100a300081804800020149008b05e900c909dd00f9
:100a4000830170000100320013002000c814de0092
:100a50004814dd004709de001200b200c808de00bd
:100a60000884700085ff070001f0a1000cf0a700ca
:100a700001f0a000cdff37006120e100cfff320080
:100a80000801be000200be00f7ff37006150e10020
:100a9000fcff3a00c9ff3700889fbe008a9fbe0056
:100aa000841f7800b0ff07004f007800110033006a
:100ab000f0ff2f00838f6c0006003b0004056500eb
:100ac0000a00a7000800370009f0a6001000200067
:100ad00008003700820f5400838f5c000300390048
:100ae0001000200001003e000000200009f0a700d7
:100af0000000ea004f05be004f04be000000e00009
:100b000000000600881f7800030478000300e0005e
:100b100007003d0060001000e0801800600119002f
:100b2000e081190002003b0001f02d0003003700b6
:100b30000400070008f0a70001f0a0004f047800af
:100b400000000600889fbe008a9fbe0000827000e1
:100b50000402710004827100260032000004be000d
:100b60000200be006011b8006b0920009502200051
:100b70000182cf000a0039000541b1000082cf0098
:100b8000070039000541b1000982cf000400390097
:100b90000541b1000882cf00010039000541b100d4
:100ba00005425200120032000a003b0082817100af
:100bb000610164008100d1000080d3008984d300ea
:100bc0000884d3008b05e8000442e800f7ff3a00f0
:100bd000070037000804440089844c0000004800e6
:100be000818048008b05e9000442e900f9ff3a00e2
:100bf00022ff07004f05be004f04be0000000600a4
:100c0000020037000304e000060032000001780013
:100c100002007800b041780081cf5100f9ff3a001e
:100c2000010037000001eb00020078000000060020
:100c3000020037000204e0000b003200810178005e
:100c40000002780030417800b14f5100f9ff3200c6
:100c50001000200014427800934f5200030031002e
:100c60000080eb00000006000000eb000000060022
:100c700000017800b1417800035978000304e000d6
:100c8000fcff3a0000000600900178000200e0003e
:100c900002003a000308e900050037008080eb00fd
:100ca0001304e000020032000308e8009300fb0098
:100cb00001007800000006000200fa00f0bf9f006b
:100cc000ea8157003fb997008f80e9004064200017
:100cd000020007000080fa00000006001200fa007f
:100ce000889fbe008a9fbe008c1f78000204780097
:100cf000a0b79f00b1b79f008300780078805700ad
:100d0000dc0007000000eb00e0b79f00d8b79f00b1
:100d10000004eb005fb697009c85fb008b04fb0092
:100d20008b05ea00cf5dde0009007800c9000700ee
:100d30000000e0001b0032006fb097000000e800e8
:100d4000e0b79f00120020008000eb003fb097004a
:100d5000afb1970003000100000578000a00780099
:100d6000bc0007000000e000f3ff3a006fb09700fe
:100d7000e10f4500080032000000e900e0b79f00e5
:100d80000001eb008a0078003fb09700afb19700f8
:100d900003000100220037000000e900e0b79f00d7
:100da0001f00370050022000808f540002003a00dc
:100db0000b05e900180037000b0578001600370016
:100dc0006fb097000000e800e0b79f00120020001d
:100dd0008000eb003fb09700afb197000300010027
:100de000bc00fb00810f50000b003200e10f4000ff
:100df0007c003200efb097008100e900e1b79f006e
:100e00000001eb00800078003fb09700afb1970081
:100e100003000100730037000a05e900e8ff3b000a
:100e20005fb097008b054000dbb79f0050022000a9
:100e3000808f5400030032000900e000b5ff3a0043
:100e4000680037009b4078000040eb00a2c2b3006e
:100e500082cf500003003a008b05e800dbb79f000b
:100e600001407800a0f79f000000eb0080bf9f00ca
:100e70000b0037000fb89700f2ff2700820f5000d9
:100e8000050032006a01b90000fd2f000200400099
:100e90000100400080bf9f000a05e800dab79f000c
:100ea0005fb597009a4478008900fb0000fd2f0091
:100eb00001004000e90f5000eeff3600a09e200028
:100ec0004fff07000000e000030032000a05e800c1
:100ed000dab79f00010037008044eb00b9f79f00ac
:100ee0005fb0970081c6b30081cf540004003a0080
:100ef00090cf14000b003a00e6c050000600370007
:100f0000c1c6b30081cf540006003a0090cf140050
:100f100004003a00e5c04000b1f79f000000e8007f
:100f2000d0b79f005fb097009000fb00109f20009b
:100f300033ff07000000e0001a003a006fb097008e
:100f40000000e800e0b79f00120020008000eb00e6
:100f50003fb09700afb19700030001008004780014
:100f6000090078003b0007000000e000f3ff3a00b2
:100f70006fb09700e18f4400080032000000e900e4
:100f8000e0b79f000001eb00890078003fb09700b8
:100f9000afb1970003000100020037000000e90034
:100fa000e0b79f007c805700340007000000e0009d
:100fb00003003c000800e0000a003a000800370087
:100fc0004ff097000004e000010032000804e80040
:100fd0005fb097000000e800d0b79f004dff3700da
:100fe00000047800080078004f0678004f05be0026
:100ff0004f04be000080fa0000000600881f780041
:1010000002047800080178006a0107000800400027
:101010004f047800000006000000fa00881f7800e6
:1010200000047800ea8157003fb9970088007800f3
:10103000e07f2000ad0007000000e0000200350066
:101040008040eb00017478004f0478000080fa00c3
:10105000000006006900e100040035006d00e100b9
:10106000030034000002b10001003200000005005e
:10107000100005000108780000000600881f7800b5
:10108000000478000040eb00005498003800900005
:101090001040780091c6b300814f5000220032000a
:1010a0000e003c00eec05000814f5000880032001e
:1010b00005003c0051c2b300814f5000690032006e
:1010c00081c5b3001300370031c6b300814f500013
:1010d000130032008140e8000e00370001c7b30062
:1010e000814f500007003c008140e900814f5000d3
:1010f0000d003d008140e900814f500078003a002a
:101100000c00370051c7b300814f50000600320079
:10111000e3c04000814f500071003a0002003700e8
:101120008000eb006b003700080078002801070002
:101130006c003700e8489000100020000104e00037
:1011400068003a00f8489000c3c6b3002801900038
:1011500083cf5000340032000a003c00e4c151004b
:1011600083cf50002a003200a0c6b30080cf5000c9
:101170001a0032006840500080cf500031003a0021
:101180000a00370043c7b30083cf5000200032006d
:10119000a0c7b30080cf5000190032006940500052
:1011a00080cf500027003a00070037002800900049
:1011b0000080e9002004980010007800084c90009e
:1011c0000848780025003700280090000080e900da
:1011d0002004980010007800030037000281e90025
:1011e000220498001200780048029000cfa2de008e
:1011f000612bb9000498be000690be0017003700ae
:101200000281e900220498001200780011003700e2
:101210000281e900220498009200780048049000be
:10122000880878002f0037000281e9002204980026
:101230009200780048019000cf91de008288be00c5
:1012400028003700280090000080e9002004980062
:101250001000780048049000080878001000200072
:1012600020003700480090000000e800400498008b
:1012700098017800120020008000eb001800900018
:1012800003000100800078001000200052022000be
:10129000828f50001300320048009000e18f400020
:1012a000070032000000e90040049800980178002f
:1012b0000001eb0018009000030001000800370057
:1012c0000000e900400498000100780005003700a4
:1012d0008080eb000800780038020700010037002a
:1012e0000000eb004f047800000006006200fa00e6
:1012f000889fbe008a1f780000057800810478006e
:10130000020478008300780080f92f000f0040006d
:1013100058ff07009a979f00a9979f000000eb00d5
:10132000b09f9f001885fb008a04fb000a05ea00b5
:101330004f55de0050022000808f54000d00320017
:10134000e10f55000b003a000a0178008800780090
:101350002f9097009f91970003000100a0979f0096
:101360000000e0008e0032003f9897000000e80087
:10137000b09f9f000a04440050022000808f540058
:10138000040032000900e000e6ff3a003f989700b1
:10139000840037000000eb00909f9f00809f9f001b
:1013a000f0979f00e0979f00d0979f00c0979f0005
:1013b00007003700419e200001005000000040005f
:1013c000819d200061007800df9897000100700087
:1013d000d09f9f0088047800090478003845780081
:1013e0008a00fb00409e200005fe07000000e00090
:1013f000f0ff3a00a1c2b300814f55000e003a0041
:10140000cf8897000180e900c08f9f00100078000e
:10141000c09f9f000000e00005003d000000ea00c2
:10142000c09f9f005f9897000020a000d09f9f0062
:101430000904e8000f003700c09f9f000000eb0088
:1014400005003700f2ff2700820f50000200320033
:101450006a01b9000280400009047800880478001d
:10146000b900fb000103b100e98f5000f5ff360021
:10147000c09f9f00e0c2b300984f100002003200ee
:101480000080eb0019003700a0c2b300d84f100055
:1014900007003a00cf8897000180e900c08f9f00c5
:1014a00010007800a09f9f000804e800100037009b
:1014b0000000eb00a09f9f00880078000500370027
:1014c000f3ff2700830f5000020032006a02b900c8
:1014d0000400410001047800880078003101fb001d
:1014e0000203b100e90f5100f5ff3600a09f9f00f5
:1014f000984478008900fb00009d2000c0fd070093
:101500000000e000020032000804e800010037009b
:101510008044eb00c97f9f0080c6b30080cf540099
:1015200004003a0098cf14000a003a0066405000c8
:1015300006003700c0c6b30080cf540005003a0053
:1015400098cf140003003a0065404000c07f9f0020
:101550000804e8001801fb00e3fb2f008f81410025
:1015600081f92f008f804000a0f92f000f0040006c
:10157000700407000000e00009003a00e1fb2f00c2
:101580008f804000a0f92f000f0040007e0207006e
:101590000000e000020035000804e80061ff3700a9
:1015a0000080eb004f0578004f04be000080fa0079
:1015b000000006008001780002003700b159780071
:1015c0000201e9000200e000fcff3a000000060012
:1015d0002f02b000889fbe008a9fbe008c1f78003b
:1015e0008e1f780000047800680090000000e00082
:1015f00001003c00f0ff27000000e90050049800c3
:10160000480090000000e80040049800980178002d
:10161000120020008000eb00180090000300010081
:1016200000057800b0022000800f55000300320052
:101630000080e800800f550015003a00cad79f00cf
:10164000d80090008100e900510498004800900003
:10165000090033000000e800400498009801780079
:10166000120020008000eb00180090000300010031
:1016700000057800030037000000e80040049800ef
:101680000085eb005efd2f000f07470002003700ca
:101690004efd2f000f074700380090009000fb0020
:1016a000f098200056fd0700f1982000010050003e
:1016b00081982000e14578008b05fb0000032000a5
:1016c000800f550033003a00d80090008100e900f7
:1016d00051049800480090000c0033000000e8001e
:1016e0004004980098017800120020008000eb0070
:1016f000180090000300010000057800800720001a
:10170000800f550008003200040037000000e80098
:10171000400498000085eb001b0037008005200086
:10172000800f550018003a000b00e0000200320064
:10173000f08f550002013a00d80090008100e900c6
:101740005104980048009000090033000000e800b0
:101750004004980098017800120020008000eb00ff
:101760001800900003000100000578000300370016
:101770000000e800400498000085eb000b01200009
:101780000046eb000d0037000b00e000e9003200de
:10179000eb0037000046eb00a90020000b00e00042
:1017a0001a003200ea8f550002003200e88f55001f
:1017b00002003a008b047800140037006901200011
:1017c00012003700d80090008100e9005104980011
:1017d00048009000090033000000e8004004980031
:1017e00098017800120020008000eb0018009000a3
:1017f0000300010000057800030037000000e80046
:10180000400498000085eb001cc0b30000032000da
:10181000800f5500ebff32000c04e000180032008e
:10182000005f7800160037006d805700800f57006a
:10183000010031000a5f7800d80090008100e900c3
:101840005104980048009000090033000000e800af
:101850004004980098017800120020008000eb00fe
:101860001800900003000100000578000300370015
:101870000000e800400498000085eb001cc0b300a5
:10188000e10f45000f003200090178008a0078005e
:1018900070992000460707000000e000e2ff3a00d0
:1018a000480090000000e90040049800980178008a
:1018b0000001eb008a00780018009000030001008e
:1018c00003003700480090000000e9004004980041
:1018d0000c04e00008003a008004eb0040fd2f00fb
:1018e0000f004000800f57008b003a00e10f4500c9
:1018f00089003a0087003700004feb0068489000ed
:10190000190020000004e00083003a003800900035
:101910001040780041c6b300814f500003003200f0
:10192000e5c04000814f500035003a000b017800bf
:101930008000eb0040fd2f000f0040004e0207002a
:1019400014c0b30004549800784a9000c6c6b3008f
:10195000a8029000864f5200240032000a003c008a
:1019600064435300864f52001c00320006c3e80057
:10197000864f52001200320068435300864f5200d7
:101980005e003a000a00370046c7b300864f520097
:101990001200320066434300864f52000f003200af
:1019a00069435300864f520054003a000400370048
:1019b0008582e90025049800150278003800370078
:1019c0008582e9002504980015027800009abe007f
:1019d0000292be00190020004f0037008582e90006
:1019e0002504980015027800480037008582e90038
:1019f0002504980015027800008abe00f5ff370024
:101a00000b0178008000eb0040fd2f000f0040002c
:101a1000750207000954980038039000a80290004e
:101a200004c7b300964f12002a003200784a900093
:101a3000c6c6b300864f52002b0032000a003c009d
:101a400064435300864f52002200320006c3e80070
:101a5000864f52001900320025c6b300854f520050
:101a600026003a000a00370046c7b300864f5200ee
:101a70001800320066434300864f520015003200c2
:101a800015c7b300854f52001c003a00060037000e
:101a9000280290000482e9002404980014027800cf
:101aa000004a7800cbff3700280290000482e9004a
:101ab0002404980014027800c4ff37008582e900ee
:101ac0002504980015027800009abe000292be001c
:101ad000110037008582e90025049800150278007e
:101ae000000a78000c0037008582e9002504980080
:101af00015027800008abe00070037002802900017
:101b00000482e9002404980014027800000a780096
:101b1000b0ff37008a047800090078004f0778008a
:101b20004f0678004f05be004f04be002f02b100e3
:101b3000000006008b0020001cc0b3001dff370012
:101b40001cc0b30017ff3700110037008001780078
:101b500010427800d5c2b300d3cf120008003a007b
:101b6000814f520003003e00a041900083cf5000ff
:101b700010003600e301400063015100030037000c
:101b8000814f52000b0032000201e900030078008f
:101b9000e20f5100edff3e0003003700b0cf100010
:101ba000050032000201e9000200e000fbff3a00fc
:101bb000000005001000050010000500f087470038
:101bc000889fbe008a9fbe008c9fbe008e1f78003b
:101bd0000004be00f84d90000046eb000900e00054
:101be00025003d00380090000000e8003004980017
:101bf00090407800ccef9f00e2c5b30082cf500048
:101c000003003a000000e80030049800c1ef9f0094
:101c1000b8069000d0c5b3009d4f100002003a00f6
:101c20000d00e800010037000d007800d10520000c
:101c3000f3fb0700c0b79f000000eb00cfb0970098
:101c40000100e000c60032000d8550000046eb00a8
:101c5000e20f5500080034000a81e9000d00e80099
:101c6000d1022000520607001cc0b3000000e000b3
:101c700001003a000046eb00680090000000e00020
:101c800004003c00100020000900e00001003200c8
:101c9000f0ff2700cbc6b2008b85fb008b05e90067
:101ca000cf5dde0050049800684890000004e0001a
:101cb0000c003a00280090000b00e0000500320004
:101cc0000080e9002004980010007800b0b79f0061
:101cd000040037000080e90020049800100078001c
:101ce000d0b79f000047eb00fbb79f008c45780002
:101cf000650037000900e000030034000d007800a3
:101d0000d4fc07001f0037000900e0001f0032006c
:101d10000b04e0000d003a004fe997000204e000d8
:101d200005003a000a0178008d0078003800900024
:101d30001f0607000c0037000a0178008d007800ac
:101d4000380090001a0607000e0037004fe8970091
:101d50000004e00007003a000a0178008d007800d6
:101d60003800900078ff07000000e00007003a000c
:101d70005a0037000a0178008d0078003800900082
:101d800071ff07000000e00054003a00ffb0970028
:101d90000100e00009003a00684890000004e000fb
:101da00038003a005fb197000d597800d2b79f0014
:101db00010c0b3000054980032003700cde79f00f8
:101dc0008d06fb000d0678000cf0a7000c06ea005b
:101dd0000c06ea004f66de0005003a000d00e00048
:101de00003003a007c805700fb0507000006e8006e
:101df0007b8257001e002000890278008b44780007
:101e000084057800100037000e07e900cb00fb00c6
:101e100048009000e18f4000090032000000e90016
:101e200040049800980178000001eb001800900031
:101e300085bf9f00030001008fba970002003700a2
:101e40000000e900400498008e0f5600eeff3500b8
:101e50008945780085047800684890000004e00017
:101e600005003a003fb097000d187800b0b79f000a
:101e700010c0b30000549800680090000000e90012
:101e8000600498002ec0b300d80090008100e900e3
:101e900051049800480090000c0033000000e80056
:101ea0004004980098017800120020008000eb00a8
:101eb000180090000300010080067800e18f4600c2
:101ec0008cff3a00ffb597002b003700ffb5970055
:101ed0000000e8004004980027003700ffb5970095
:101ee000480090000000e900400498009801780044
:101ef0000001eb008d007800180090000300010045
:101f00000900e00002003200e24f570005003200f5
:101f10000e07fb000080eb001100320010002000d3
:101f20000f003700684890000004e00007003a0006
:101f30000b00e00003003200bfb097008008eb0008
:101f4000020037005fb197000b49780010002000b5
:101f50000900e00002003d00cfb097003104980076
:101f60004f0778004f06be004f05be004f04be006d
:101f70000f01b10000000600480090000000e900d9
:101f800040049800deff37000400fa00889fbe007e
:101f90008a9fbe008c1f780000047800010678003c
:101fa000f80d90007800900080855500080890009a
:101fb00080855500180890008085550028089000fd
:101fc00080855500380890008085550048089000ad
:101fd000808555000002220090bf9f00000323006f
:101fe000a0bf9f00081090000028a30015003a0031
:101ff0000b00e000130034000b0578008a04780021
:10200000e20f55000100360029002000c8019000b1
:1020100009017800ee80570058009000030001008d
:10202000500498000000e0008c0032006808900026
:1020300009004000600c9800090555004240a900c5
:10204000eeff3c00780190000200e0000c0034003c
:10205000c80190008c007800580090000300010037
:10206000500498008080eb000000e0007c0032000b
:10207000e80890007800900000804000600c980014
:10208000880c90000900e000110034000905780078
:10209000e28f5400010036002a002000c8019000a1
:1020a0000a017800ec8057005800900003000100fe
:1020b000500498000000e0006800320068089000ba
:1020c0000a004000600c98008a845400edff37003d
:1020d000180990000200e0000c003400c8019000d4
:1020e000e8009000580090000300010050049800a0
:1020f0008080eb000000e00059003200e80890000a
:102100001808900000804000600c9800a80c900017
:102110000900e0001100340009057800e28f540046
:10212000010036002a002000c80190000a01780052
:10213000ec80570058009000030001005004980004
:102140000000e00045003200680890000a004000ee
:10215000600c98008a845400edff37003809900025
:102160000200e0000e003400e80090001808900023
:1021700080804000c80190005800900003000100da
:10218000500498008080eb000000e0003400320032
:10219000e80890003808900000804000600c98002b
:1021a000c80c90000900e000110034000905780017
:1021b000e28f5400010036002a002000c801900080
:1021c0000a017800ec8057005800900003000100dd
:1021d000500498000000e0002000320068089000e1
:1021e0000a004000600c98008a845400edff37001c
:1021f000081090008000eb000028a30018003200b7
:102200000b00e000160034008b047800090578000c
:10221000e28f5400010036002a002000c80190001f
:102220000a017800ee80570058009000030001007a
:10223000500498000000e000080032006808900098
:102240000a004000600c98008a8454004240a900b3
:10225000eeff3c008000eb00010037008080eb00c7
:10226000010078004f0678004f05be004f04be0005
:102270000080fa0000000600e4874700889fbe0047
:102280008a9fbe008c1f78008e1f780000057800a2
:1022900001077800020678000e00e00001003a0015
:1022a0006e8757008a0578008b04780089057800ce
:1022b0003b4478000800fb0066fb07000000e000dc
:1022c000f9ff3a00d0c2b300804f5400030032003f
:1022d00000c0e900804f540002003a008904e80081
:1022e00001003700004478000c0178008e0078006f
:1022f000090078003c0007009e8f540001003a005e
:102300000a0f78009e0f550005003a00e00f5000bc
:10231000e08f5800e00f5900e08f590018003a0094
:10232000b4c2b300844f54000a003a00f4ff2f00f7
:10233000f5ff2f00f6ff2f00f7ff27000400e10054
:102340000588e1000690e1000798e1000c003e00de
:102350001f003700d4c2b300844f54001c003a0061
:102360006022b80006002000070028000400e100f9
:102370000588e1000690e1000798e10009003600b9
:1023800020022000b04f88006b404000804f540076
:102390000b003a006000b800020020000300280093
:1023a0000b0037006022b8006033b8000000520014
:1023b00081805a0002015b0083815b0004003700ca
:1023c000f0ff2f00f1ff2f00f2ff2f00f3ff270097
:1023d0004f0778004f0678004f05be004f04be003f
:1023e0004f00b100000006000f02b000889fbe0041
:1023f0008a9fbe008c9fbe008e1f780080b79f0012
:10240000010778008206780000047800080678004a
:102410000c04780038407800e0e79f0080407800a6
:102420000100fb000bfb07000000e000f7ff3a0093
:10243000d0c2b3006fe19700804f5100030032001b
:1024400000c0e900804f510002003a000c06e8008d
:1024500001003700e0e79f000d00e00005003500b7
:10246000e18f56000300320040022000808f5600aa
:10247000070034006044b8006055b8000e00e0006a
:10248000970032000fb29700040f780094003700d5
:102490000d00e0000e003200f08f56001a003a00e6
:1024a00000c3b3009c4f100017003a001c4090007e
:1024b00081c7b300814f50000300320081c5b300d3
:1024c000814f500010003a000c86e8000e003700e3
:1024d000ad00200000c3b3009c4f10000a003a007a
:1024e0001c40900081c7b300814f500004003200af
:1024f0008d00200081c5b300814f500002003a00da
:102500000c86e8000d0120000c00780080007800a7
:102510000100780002c3b300b04f1100fbff32008e
:10252000e1af9f008102780095b79f006044b8003a
:102530006055b8008cbf9f001c003700e19320005d
:1025400081405000e1df9f00616ab900612bb90052
:102550000800be000a01be0064080700efda970019
:102560000502fb00cfa2de00612bb900c4b79f00bb
:10257000d5b79f00e6b79f00f7b79f00a8af9f00b1
:10258000b9af9f00caaf9f00dbaf9f004fb297006b
:10259000dfb297006fb39700ffb3970000044200cb
:1025a00081844a0002054b0083854b009fb297004f
:1025b000a5b79f00050378003600fb0096b79f0083
:1025c0004f0007000d01780080007800e0932000a4
:1025d000f70307000000e000d8ff3a000fbe9700a5
:1025e000afb39700870f560007003a006044b80069
:1025f0006055b8000e00e000390032000fb69700b9
:102600000c0f7800360037002fb097006fa99700a5
:10261000820050003096200060c07e000000fb0069
:10262000008050002000330019003a006fda970054
:102630000400fb00cf80de006109b90000005400f7
:1026400081805c0002015d0083815d000040e1004b
:1026500001c8e10002d0e10003d8e1000c0039001c
:10266000616ab900612bb900b70707002faa97006c
:10267000bfaa97004fab9700dfab97000400e100c3
:102680000588e1000690e1000798e10006003200ad
:1026900020022000b04f8800f8ff2f00f9ff2f0024
:1026a0000805be000a003700d0c2b300efe2970071
:1026b00080cf520006003a006000b8006011b800f8
:1026c00008045000898458000a0559008b85590078
:1026d0000e00e000020032002fb39700060f7800d2
:1026e0000800be000a01be004f0778004f06be007a
:1026f0004f05be004f04be000f02b10000000600ef
:10270000800078001104b100030035009101b10090
:1027100001003c000050a00000000600c04f8000f7
:102720000000e0000100320000000100609f200076
:1027300000000600889fbe008a1f78000004780011
:10274000824478000305780070c6b30080cf54003f
:102750001a003c0000c0e90080cf5400cd003d00cd
:102760006d40500080cf5400770032000b003c00d9
:102770007140500080cf540035013c0000c0e9009a
:1027800080cf5400c3003d0050c2b30080cf54003e
:102790002c0132007c4040000500370030c6b300f9
:1027a00080cf54001a0032001e003c0000c0e90037
:1027b00080cf540026013a00b6003700f0c6b300bf
:1027c00080cf54006000320007003c00664050009b
:1027d00080cf5400130032006540400080cf540089
:1027e0001b013a00d400370050c7b30080cf54001b
:1027f000550032006340400080cf54005200320048
:1028000002c7b30082cf540011013a00ff00370025
:102810001181e90082087800780090001275780034
:102820001101370028609000c2c6b300824f5000eb
:1028300007003a0011017800640051008008780018
:102840001000be004f89de008201780014003700be
:1028500012c7b300824f500003003a001102780003
:102860006800520005003700a2c6b300824f500036
:1028700006003a00910278006880520080087800d3
:102880005001be004000be00050037001180e90085
:102890008008780010007800cf80de006109b90060
:1028a000009cbe000294be002862900085c6b30062
:1028b000854f52000d00320025c6b300854f5200ef
:1028c00004003a000000fb00cf80de006109b9007f
:1028d0000800370045c7b300854f5200030032009f
:1028e000e6c24200854f520004003a00cf80de006d
:1028f0006109b900009cbe000294be003802be000f
:102900002803be0078009000d1c2b300e00f52004f
:10291000e08f5a00e00f5b00e08f5b00080035009d
:10292000881090000118a30002003200b1c2b30069
:10293000030037000108a3005100320001c2b300b8
:10294000017578004c00370028609000c2c6b300c3
:10295000824f500008003a001103780064005300d1
:10296000800878001002be006033b8000400be008a
:102970000601be001400370012c7b300824f50009a
:1029800003003a0091027800688052000500370089
:10299000a2c6b300824f500006003a00110378002f
:1029a00068005300800878005001be004000be005f
:1029b000050037001180e9008008780010007800d9
:1029c0008000eb006011b800009cbe000294be00c5
:1029d0002862900085c6b300854f52000d0032007a
:1029e00025c6b300854f520004003a000080fb006a
:1029f0008000eb006011b8000800370045c7b30045
:102a0000854f520003003200e6c24200854f52005b
:102a100004003a008000eb006011b800009cbe008a
:102a20000294be00081090000038a3001400320089
:102a30003800be002801be00e00f5000e08f5800b3
:102a4000e00f5900e08f59000d00320080c7b3003d
:102a500080cf54000300320080c5b30080cf540003
:102a600007003a007800900001c3b30001757800b8
:102a70000000e800097578000000e8007004980084
:102a800078009000000545006a04980089407800ad
:102a90006900370028619000c0c4b300804f510026
:102aa00006003a009103780068805300800878009f
:102ab0005001be004000be00050037001101780043
:102ac00064005100800878001000be002505070052
:102ad000009cbe000294be00b800900078009000f8
:102ae0000100e00002003d00d1c2b3000800370041
:102af000881090000118a30002003200b1c2b30098
:102b0000030037000108a3000400320001c2b30033
:102b1000017578000000e8007004980078009000cb
:102b2000000545006a0498008900fb000800780051
:102b3000530007004e00370028619000c3c6b30061
:102b40001180e900834f5100240032000a003c004c
:102b5000e4c15100834f51002700320083c1e800d7
:102b6000834f51001500320020c6b300804f510042
:102b700020003a000a00370043c7b300834f5100da
:102b80001d003200e6c14100834f51001a0032009f
:102b900010c7b300804f510016003a0006003700fe
:102ba0001180e9008008780010007800485c9000ef
:102bb000084878002e0037001180e900800878006e
:102bc00010007800680a9000cfa2de00612bb900e7
:102bd0000498be000690be002500370080087800eb
:102be0001000780068099000cf91de000288be00d6
:102bf0001f0037001180e90080087800100078007d
:102c0000680c900008087800190037001181e9006d
:102c10008208780012027800cfa2de00612bb90092
:102c2000049cbe000694be00f8009000010545001b
:102c30006a04980080407800080078009602070037
:102c40000b00370078009000097578000600370007
:102c500078009000000545000904e00001003a00fa
:102c600059c2b300094d78000000e80070049800d4
:102c70000000eb004f0578004f04be000000060086
:102c80002f04b000889fbe008a9fbe008c9fbe00ac
:102c90008e1f78000007780081f79f003e04be0079
:102ca0002e05be005e0890000000e00002003d001e
:102cb00060002000500f98008e00780020fb2f004d
:102cc0000f0040004a020700e20f50000a003a00dd
:102cd00030002000100f9800b1c9b3000ff097002a
:102ce00081404000a08e2000e1cf50000d003e004a
:102cf000608e20000b0037000000e0000f00340061
:102d000030002000100f9800b1c9b3000ff19700f8
:102d100081404100208f2000e1cf500001003e00a3
:102d2000e08e2000ee009000b0487800b068780097
:102d30001040780090409800f30037000000e00059
:102d400005003a0022fb2f000f0141000019780016
:102d50008001eb00e70037006022b8006033b80064
:102d60000800be000a01be00c60307000000e00024
:102d700001003d000bf0a200705927009f989700ba
:102d80000088b900026a280013002000210407000f
:102d9000640650009c9f9f0013003b0063061600d2
:102da000c0ff2f00000666008c01ea00939f9f0081
:102db0006d8f20000800be000a01be00070037002a
:102dc0000c08a300030032003d02be002d03be002c
:102dd000b30407000c86d100e88646000c00e00032
:102de000f7ff3c00180037000c00e000180032002c
:102df000c0ff2f00000666009c9f9f006d8f200083
:102e00006000b8000200200003ff23000700370025
:102e10000c08a300030032003d02be002d03be00db
:102e20009f0407000c86d100e88646000c00e000f5
:102e3000f7ff3c000002be000203be000800be0017
:102e40000a01be00990307000004be000205be008f
:102e5000de08900060c6b3000ff29700804f52006a
:102e6000040032006000200062c4b300824f5200b0
:102e700002003a009f9a97006a8042008100400059
:102e8000f1b79f0001037800f30f530002003400f4
:102e900037012000f7b79f0000c3b300c0779f0041
:102ea00056fb2f000f0343000e007800a0b79f00d1
:102eb000060778003d0037000800be000a01be008a
:102ec000470407000006be007fb19700680151006b
:102ed000f2b79f004240a9000c0034006c040700c8
:102ee0000002be000203be000800be000a01be00d0
:102ef000e10407006022b80046782d00771924000d
:102f0000670407000004be000205be00e800470099
:102f10008e0020000802be000a03be00b4b79f0066
:102f2000c5b79f00d6b79f00e7b79f000c01be0052
:102f3000010478000c003700a400200005002000e8
:102f4000c0fd2f000f004000840107006fa897000c
:102f5000ffa897000fb197009fb1970005c3b3007a
:102f6000056441000001be00e00f5100e08f5900f0
:102f7000030034000e07e900e10f4700eeff3a00be
:102f8000880078003fb49700cfb497005fb59700f2
:102f9000efb597000200370000c3b30080607800ef
:102fa0000e07e900fcff3b00688740007fb39700f5
:102fb0000600e000070034006022b8006033b8006b
:102fc0000800be000a01be00330307000000e00055
:102fd000b9ff3c000e0378002fb7970051fb2f007c
:102fe0008f804000010353009f9b97006780430040
:102ff000909f9f00020037000603e9000000e900ef
:10300000010178008200780003c3b300b1cf110042
:10301000f9ff3200909f9f00de09900061c6b30067
:103020000ff29700814f52000300320061c4b300d9
:10303000814f520002003a000000e8000a00370009
:103040001000200051c6b3008ff2970081cf5200cc
:10305000050032000540780050c4b2000080fb003b
:103060000000e9004f00de0083014000868f510020
:1030700001003400860178000300e0001d003500e7
:1030800000c3b300868f510006003d0062c2790084
:103090006940400041c3b300814f520001003c0031
:1030a000694050008300e9008100410001003700c1
:1030b000840178000302e90001037800a14278004e
:1030c00080cf5200faff320091c3b300814f50000d
:1030d00001003a00054be8000400e00005003d0057
:1030e0000201e9008301e8001f9b97000603e80046
:1030f000969f9f008ff397008700fb001f9a970011
:103100000e007800060007004f0778004f06be004b
:103110004f05be004f04be002f04b10000000600a2
:10312000f0874700889fbe008a9fbe008c9fbe002c
:103130008e1f780000047800814478000205be00ec
:10314000040678000b00e00002003c001b00200099
:10315000aa9f200060c6b30080cf54000e0032004a
:1031600060c4b30080cf54000b00320070c6b300bf
:1031700080cf54000300320070c4b30080cf5400ed
:1031800081003a00e40f46007f00350058089000a7
:10319000800f56007c003d000c06e80060c6b300be
:1031a00080cf54001000320060c4b30080cf5400c0
:1031b0000d003200081090000038a30004003a000f
:1031c00058089000808f550001003d005b0c98006e
:1031d000580890000c005000500c980002003b0072
:1031e0000000eb00500c980018089000e8009000d8
:1031f0000c00e00026003c0002c3b300827078009f
:103200000000e800100c9800d80890000100e000d1
:1032100003003c00881090000138a3000500320034
:10322000e8009000e2c2b300827078000000e8007d
:10323000100c9800580890008c00ea00810f500094
:1032400001003d000006ea008c00ea00210c980015
:10325000000646005c0c98008b0f560001003400fd
:103260000b0678003c0c9800e800900018089000cd
:10327000008040000c0178008a007800cdf807003b
:10328000580890000c0650004c0c98009000370035
:103290008c8f550018003d00008040000b01780025
:1032a0008a007800c3f807001808900000804500e5
:1032b000100c98008b0556002b0c9800d808900035
:1032c0000100e00003003c00881090000138a300da
:1032d00006003200e8009000e2c2b300827078007d
:1032e000380890000000e800300c98005808900062
:1032f000400c980076003700008040000c017800f8
:103300008a007800abf8070018089000000046001b
:10331000100c98008c855500d80890000100e00042
:1033200003003c00881090000138a3000500320023
:10333000e8009000e2c2b300827078000000e8006c
:10334000100c980058089000808f55000100340040
:1033500080057800e8009000180890000080400088
:103360008c0045000b01780092f8070018089000c7
:103370000b004000100c9800580890008b0550007e
:103380002b0c98005200370018089000e8009000bd
:103390009a7078000000e800100c9800d80890009f
:1033a0000100e00003003c00881090000138a300f9
:1033b00005003200e8009000e2c2b300827078009d
:1033c0000000e800100c9800580890000000e00091
:1033d000100034008b05e900808f55000100340097
:1033e00080057800e80090001808900000804000f8
:1033f0008a00e8000b0178006ef8070018089000ba
:103400000b004000100c9800580890008b055000ed
:103410002b0c9800e80090001808900000804000f5
:10342000095878000007e8000c00e00004003500af
:10343000b1c2b300014878008e0478000400370060
:10344000d1c2b300014878008e0478000c06ea006f
:103450007d8557008006eb0009003700a2002000a0
:103460008c00780072805700310007007fb0970011
:103470008fb89700016d7800000678008d06e8008f
:103480000c00e000f5ff3c000d00e00009003a00f0
:103490008e04780000c3b300805c7800050037001c
:1034a0008d06e900fc80570061c07e0002c3b300b6
:1034b000825c40000d00e000f9ff3c00e800900055
:1034c000180890000080400080845400390c980057
:1034d0000810900074006000f00f50000e003a00d9
:1034e000980890007800900000804000a8089000a4
:1034f00001004000b808900001004000c80890009a
:1035000001004000f8089000810f500002003d00cb
:1035100000805000000c98004f0778004f06be0056
:103520004f05be004f04be000f01b10000000600b1
:103530008002780001037800110009000203d8001e
:1035400080017800830a78000299b90002015300d3
:10355000920298000500780000000600881f78009d
:103560008a9fbe008c9fbe00000478000205be004a
:103570000406be000401be000a00be0025020700ca
:10358000008cbe000c01be00500307000005550072
:1035900081855d002a0498003b04980008007800ab
:1035a0004f06be004f05be004f0478000000060025
:1035b00003003700b0cf1000050032000201e9001f
:1035c000800178000200e000faff3a0000000500e8
:1035d00003007800000006008000780001017800f8
:1035e0003104e000fdff3a00000051000000060039
:1035f000889fbe0000047800e68440001900d000d7
:103600004500de00f27f2000820f500010003a00db
:10361000000ceb00990478006f816400200020000a
:103620001b003a00210190000200e00018003a005f
:10363000110190000200e00015003a001000200087
:103640001100e000120032002000200010003700be
:103650000000e00004003a00010078003d0107008e
:103660000000e00008003c00f200280019016100a1
:1036700001fe2300810c710021c02f00010c4000cd
:103680000080eb0002003700000ceb000000eb00b4
:103690004f04be0000000600fc874700889fbe0064
:1036a0008a9fbe008c9fbe008e1f780000067800a7
:1036b00080c5b30080cf50000a0032007740400040
:1036c00080cf50000a0032006940400080cf500097
:1036d0000b003200f09b200080bf9f00ae00200056
:1036e0000a003700e29a200082bf9f0006003700e0
:1036f000f39b200083bf9f008e0020000300370053
:10370000f49b200084bf9f000e0120003c02be00fd
:103710002c03be000605be000404be0040c6b30074
:1037200080cf5000030032006540400080cf500041
:103730000b003a00e00f5200e08f5a00e00f5b00f0
:10374000e08f5b0006003d006000b8006011b8002b
:1037500004045000858458000605590087855900e7
:10376000e80f57000400320040002000f00f57001f
:1037700038003a000100370030002000e00f54000c
:10378000e08f5c00e00f5d00e08f5d0004003a0018
:10379000dc0890008d0120000100e00006003200ee
:1037a0008e00e900888060008fba9700e5c078003d
:1037b000f1ef9f007d012000800078008100e9008a
:1037c000050033008b05d1000a85d3008984d3001e
:1037d0000884d300f9ff3700089ebe000a96be0099
:1037e000120037008d06e9008e00e9008480600039
:1037f0000fb99700e2c1780082fd2f000f01410050
:1038000003f17e00800078008100e90005003300ac
:103810008783d1000683d3008582d3000482d3003e
:10382000f9ff3700049ebe000696be003c02be00b3
:103830002c03be00e00f5200e08f5a00e00f5b0047
:10384000e08f5b008b0034000d00e000e5ff3c00e2
:10385000880037002c60900081c6b300814f500073
:103860000b00320006003c000004e00008003200bb
:10387000e6c05000814f50004e003a00040037006f
:10388000c1c6b300814f50004a003a002100370002
:103890000800e00004003a005c0890008d01200060
:1038a0000000e00006003200110009000e84d8007c
:1038b0000fb99700e2c07800f1ef9f007d01200072
:1038c000110009000e84d8000a0037001100090019
:1038d0000e04d8008d06e9000e81b90002045400e0
:1038e0008fb8970061417c0081fd2f008f804000e0
:1038f00082f07e00000478000800e0000200320040
:103900000d00e000f1ff3c00cfc4de00614db900c6
:1039100025003700e00f5400e08f5c0004003a00ff
:103920005c0890008d0120000000e00007003200dc
:103930006171b9000800be00610207008fb99700ed
:10394000e3417800f3ef9f007d0120006171b90031
:103950000800be004a0207000b0037006171b90081
:103960000800be002b0107008d06e90000f1b90038
:10397000020454000fba9700e4427c0084fd2f003b
:103980000f02420005f27e000004be00e00f50006e
:10399000e08f5800020032000d00e000efff3c0015
:1039a0004fcdde008a057800089ebe000a96be0054
:1039b00030003700e00f5400e08f5c00e00f5d0046
:1039c000e08f5d0004003a005c0890008d0120004b
:1039d0000000e000090032006172b900612bb900fb
:1039e0000800be000a01be00de0207000fba970001
:1039f00064427800f4ef9f007d0120006172b900fd
:103a0000612bb9000800be000a01be00ce0207000b
:103a10000d0037006172b900612bb9000800be00cb
:103a20000a01be00d30207008d06e90000f2b900ca
:103a3000040454008fba970065427c0085fd2f0076
:103a40008f82420084f27e00009ebe000296be007d
:103a50003c04be002c05be00e00f5400e08f5c006b
:103a6000e00f5d00e08f5d00020034000d00e0001b
:103a7000e8ff3c00e80f570010003a000c109000df
:103a80000038a3000d003200f78f560006003e00fc
:103a900085fd2f008f824200e5c07e0000c3b30089
:103aa00080cf5000050032008d06e90002c3b3004c
:103ab00081fd2f008f80400082f07e00788116000b
:103ac000120e98006c00900083fd2f008f81410042
:103ad0008d804100b7f607001c089000dc089000bc
:103ae000810f500006003d0000805000000e98003d
:103af0000c1090000040a100001698000f00370045
:103b00000100e0000d003d008c109000f48060008a
:103b1000f08f500009003a007c099000fc009000f2
:103b2000810051000c0990008280500000805000fc
:103b30004240a90001003400000e98004f077800b1
:103b40004f06be004f05be004f04be00cf01b100be
:103b500000000600e6004000110178000500280082
:103b6000850261006f016100820878000200320066
:103b70001200200011003700a00190001200200068
:103b80000300e0000d003a00900190000300e00007
:103b90000a003a001000e00008003a003600370042
:103ba000640340009608780080017800530b780089
:103bb0009009780004087800700151001102780023
:103bc0000400e000f6ff32001300370064024000fa
:103bd000140378004f33de008381410083087300b3
:103be00080017800d3037800cf3bde001403780017
:103bf00006034300068a73001302780004024200a1
:103c0000100378004f33de008609720090017800bf
:103c1000038841000201e90091017800ef8f510013
:103c2000eaff360010003700800178005303780067
:103c30004f33dd001002d10004087300640240001d
:103c400094037800cf3bdd001303d1008689730015
:103c5000110378004f33dd009401d100030a730093
:103c60009108d1000201e80091017800ff8f510016
:103c7000edff3e00ef88610091887200020078003d
:103c8000000006008f1fd1003f0307008f87e90067
:103c90000000e00000000600809feb003a030700f0
:103ca0008f87e9000000e000000006002800fa000d
:103cb000889fbe008a9fbe008c9fbe0003866b005b
:103cc0008f0007006400e100440032006408e10056
:103cd0004a0032006100e100460032006108e10064
:103ce00049003200ec0647006000b8003d02be000b
:103cf0003d03be00f48657006011b8003d04be00cd
:103d00003d05be007d0320000b0037000000a00031
:103d10008d06e900130032000402420085824a0049
:103d200006034b0087834b00000040008180480061
:103d300002014900838149000802520089825a0029
:103d40000a035b008b835b00f0ff3b00080242002c
:103d500089824a000a034b008b834b008d06e900e1
:103d6000edff3a008482720086827200f707b2008b
:103d70008782720001003200150020001e049000ae
:103d80003e0b900006035400e63fb0000368a3001a
:103d9000070032000000a7000500a0008301d10049
:103da0000281d3008180d3000080d3000603e800a5
:103db0008301d1000281d3008180d3000080d30031
:103dc0000002eb000482d2002100070003f0a100f2
:103dd0000cf0a70003f0a0005d003700640247006c
:103de0006408e100570032003400be003401be0018
:103df000f6ff37006108e100520032006011b800a0
:103e00006000b800f1ff370003ff27000200200028
:103e1000fbff3700839f68000100e00002003d00c7
:103e200060001000e08018000300e00002003d0088
:103e300060011100e0811900110107004f00e0004e
:103e400002003b0060001000e08018000000060047
:103e50001800200057002000080453000d003d000a
:103e60000600200097fc2f000740e1001e003400f0
:103e700084827200610260008301d1000281d3005c
:103e80008180d3000080d3000804e800f8ff3a00e6
:103e9000470020006104600005047400040464000d
:103ea0000d00320061004000e080480060014900e0
:103eb000e081490003b8a500070032000603e800ce
:103ec0006538e10004003a008301d1000281d3008b
:103ed0008180d3000080d300f87f20000830e1000b
:103ee00003003500080378006000b8006011b800d6
:103ef0004433dd00f300b2008301730000000600cc
:103f0000680447000294be000094be00fc04470011
:103f10008694be008494be0009007800e302070086
:103f200008007800e102070099007800814f7000d6
:103f30000b003b000800be00bc0207004f00b100b0
:103f400003003700f3ff2700f2ff2f006110b900d4
:103f50004f06be004f05be004f04be000080fa00b1
:103f600000000600810378006af207000001be002d
:103f70006000b8000478a30013003a006220e1005a
:103f800015003e000d0039008301d1000281d300ed
:103f90008180d3008301d1000281d3008180d300ce
:103fa0008301d1000281d3008180d3000538b000a5
:103fb000c42add00f300b2008381720007f0a7007d
:103fc00003f0a00000000600f3ff2700f2ff2f001f
:103fd0006110b900fbff370003ff2700f7ff370030
:103fe0001400fa00889fbe008a9fbe008c9fbe000e
:103ff0000004be000205be00680047000a90be0033
:104000000890be00a90207000070a7000bf0a100f5
:10401000304320009e02900080825200b0fe2f00ac
:104020000028e10011003d00b0fc2f000028e10055
:10403000150034001e0990008e0890007e0090004c
:104040000501b0000201d1008180d3000080d300bf
:104050008502e800fbff3a000b00e000bcff3b00dc
:1040600060001000e0801800b9ff3700f0ff2f005b
:10407000f1ff27000b00e000b5ff3b000100280026
:1040800000002000b2ff37006000b800b0ff37002a
:104090004f89de0082017800ab023700000000008b
:1040a0002800fa00889fbe008a9fbe008c9fbe0039
:1040b00003866b0092ff07000028a30064003a000b
:1040c0000128a30067003a000008a30062003a003c
:1040d0000108a30065003a001e009000be08900091
:1040e00081064000ed3fb100f4805700ee019000e2
:1040f000111ab8008e099000311bb8009e0990007b
:10410000311cb800511db800f48557004600070067
:10411000fe0190003a0007008b85e8003e00070092
:104120008e09900040000700ee0190003400070067
:104130008b85e800380007008e09900040000700da
:104140009e0990001b18b800890440000a854800a9
:10415000fe019000340007008b85e800380007005e
:10416000ee019000300007008e0990001b18b80087
:10417000890440000a8548000a98a30008003a0014
:104180000402420085824a0006034b0087834b00ed
:1041900008044c0089844c000a054d008d06e90096
:1041a00084827200850273004c3add008502720041
:1041b0000100320015002000443ade001400b20075
:1041c0004538de00cb45dd000b007000c540de0049
:1041d000cb4ddd008b8070004549de00cb55dd0006
:1041e0000b017100c551de000d03780018ff0700b8
:1041f00003f0a1000cf0a70003f0a00054ff37006b
:104200001b18b8008502400006834800e0834b007d
:1042100060044c00070037001b18b800060340007c
:1042200087834800faff37001b18b8008703400057
:1042300008844800e0844c0060054d000000060042
:104240001b18b8000804400089844800faff3700b2
:104250000108a3003bff3a005800be005801be0011
:10426000e3ff37000008a30036ff3a000904780096
:10427000f9ff37000000000007f0a20044013700fa
:104280006022b800060220000000d0008180d20029
:104290000482d2008582d2000000a00002025200f7
:1042a00083825a00030031000202420083824a00e6
:1042b0000000a1000603e900f3ff3a000000060039
:1042c000efff07000400be0000000600020ab9006c
:1042d000001bb9000200b8008100420081004300c9
:1042e00000000600889fbe008a9fbe003004420086
:1042f000b0844a0030054b0090854b006000b1004f
:104300000898be000a90be000440e10005c8e10024
:1043100006d0e10007d8e10002003100680040004b
:104320001008e8004f05be004f04be000000060064
:10433000889fbe008a9fbe003004be002005be00dc
:104340000418540005985c0006185d0007985d008d
:10435000110020000440e10005c8e10006d0e100a2
:1043600007d8e100010039008000eb001088100040
:104370004f05be004f04be00000006001200fa0008
:10438000889fbe008a9fbe008c9fbe00e0b79f0042
:10439000f1b79f0082bf9f0093bf9f000605be003c
:1043a0000404be000000eb00d0b79f00c0b79f0020
:1043b000b0b79f00a0b79f0090b79f000006eb002a
:1043c0005fb19700cfb09700820141003fb09700e6
:1043d0000200e00004003d00370007007e80570027
:1043e000c0ff070003003700330007007e8057003e
:1043f000cfff0700dfb697000d00e0000c0035008e
:104400006fb29700ffb297000fbb97009fbb97005a
:1044100010002000010020006011b80000027200ae
:104420008182720002037300838373001b00070004
:104430000c06e80001042000810f5600e0ff3a005e
:104440000d00e00004003d000802be000a03be00ab
:104450007e805700a3ff07005fa897000000e000e0
:1044600005003a001fb29700afb297003fb3970024
:10447000cfb39700090007006fb09700ffb0970017
:104480000fb997009fb997004f06be004f05be00b9
:104490004f04be000080fa00000006000100070083
:1044a00000000600a4b79f00b5b79f00c6b79f00e5
:1044b000d7b79f00000006004f09de00828171001f
:1044c000b3b79f004f01de00818040008280700002
:1044d000a1b79f008fb097004f09de000000400099
:1044e0000200700090b79f007fa897004f01de0088
:1044f000818040008280700081b79f000d0007001e
:104500004f3ade000000400004007000f0af9f0052
:10451000080007000402420085824a0006034b009f
:1045200087834b00dfff07000802be000a03be00be
:10453000000006002fb29700bfb297004fb397005c
:10454000dfb3970000000600881f780018002000e5
:10455000881f780089ff07008f87e9004f047800e3
:1045600000000600801feb0084ff07008f87e90032
:1045700000000600889fbe008a9fbe00e00f50002a
:10458000e08f5800e00f5900e08f59000c003d000b
:104590006044b8006055b8000000540081805c00a1
:1045a00002015d0083815d001800200015000700f6
:1045b00008003d00180007000004eb00050037006c
:1045c0000004eb000f00070002003d00120007008e
:1045d00018002000dcff07000800e00006003200a1
:1045e0006022b8006033b8000000520081805a0099
:1045f00002015b0083815b004f05be004f04be00db
:1046000000000600e00f5200e08f5a00e00f5b0050
:10461000e08f5b00000006006044b8006055b80001
:104620000402540085825c0006035d0087835d0000
:1046300000000600889fbe008a9fbe008c1f780085
:10464000e00f5000e08f5800e00f5900e08f590054
:104650000d003d006044b8006055b80000005400f3
:1046600081805c0002015d0083815d001c002000f0
:104670000820e10009a8e1000ab0e1000bb8e10060
:104680000d003d00080037000006eb00e00f52006f
:10469000e08f5a00e00f5b00e08f5b0006003d00fa
:1046a0006044b8006055b8000402540085825c0084
:1046b00006035d0087835d00aaff07000c00e00091
:1046c000060032006022b8006033b80000005200db
:1046d00081805a0002015b0083815b004f067800f5
:1046e0004f05be004f04be0000000600889fbe00bc
:1046f0008a9fbe008c1f78000006eb00e00f500080
:10470000e08f5800e00f5900e08f590007003d008e
:104710006044b8006055b8000000540081805c001f
:1047200002015d0083815d001c002000e00f52004b
:10473000e08f5a00e00f5b00e08f5b0007003d0058
:104740006044b8006055b8000402540085825c00e3
:1047500006035d0087835d000c00a20035010700a1
:104760000c00e000060032006022b8006033b800a0
:104770000000520081805a0002015b0083815b00cf
:104780004f0678004f05be004f04be000000060033
:104790002800fa00889fbe008a9fbe008c9fbe0042
:1047a00007067800878669000c003b000304780048
:1047b0008704780008f0a10009f0a100840f5000e0
:1047c000858f5800860f5900890f5c000300330065
:1047d0000cf0a20001003a000cf0a100c8fd070097
:1047e0006400e1005f003200780147006408e100e6
:1047f000610032006c014700748557003200be0032
:104800001201be003a04be001a05be001e0390004d
:10481000be0a90008503530006003d000004fd0021
:104820008104fd000205fd008305fd008703ea0009
:10483000050378000df8a3000400320060041400a2
:10484000e0841c0060051d00e0851d006022b800aa
:104850007d0320000d38e1008006eb000b003900dd
:104860004433dd00f300b2008301730039003700e8
:10487000848272000d027800e10664008b85d1000d
:104880000a85d3008984d3000884d3008703e90014
:10489000f7ff3b0008004000898048000a014900fa
:1048a0008b81490004003b0060001000e08018008c
:1048b00060011900e08119000358a30009003200cb
:1048c0008d82720084827200610260008301d100d7
:1048d0000281d3008180d3000080d3000603e8006a
:1048e0001b0037000348a30017003a000600e00051
:1048f000170034000603e9000d00a3000000480083
:104900008180480002014900838149000348a300d7
:104910000f003a000600e000090034000603e90039
:104920000000400081804800020149008381490065
:1049300001003a000003eb000348a300f5ff32003a
:104940006022b80002003700848272006182660033
:104950003ffd070003f0a1000cf0a70003f0a0004a
:104960007bfd3700640147006408e10002003a0063
:104970000df8a30073fd3a003200be001201be0024
:1049800073fd370000000000889fbe008a9fbe00b4
:104990008c9fbe000404be000605be00809fbe00c2
:1049a000829fbe002f000700040678000800be00aa
:1049b0000a01be002b000700840678004f03be00ea
:1049c0004f02be008d4f76007fb09700130033007a
:1049d000f0ff2f008b8f6b0006003b000d0666007a
:1049e0000c00a7000a00370007f0a6001000200006
:1049f0000a003700880f5200898f5a008a0f5b0027
:104a00008b8f5b00030039001000200001003e0086
:104a10000000200007f0a7000000ea004f06be00db
:104a20004f05be004f04be0000000600e4824000b7
:104a30001078a30007003200640240001178a30040
:104a40003400be001401be00040032000330a70091
:104a5000000006003500be001501be000330a000b6
:104a60000000060005ff27000582610007003200f4
:104a70000428e100010032002400050006000700c0
:104a800001003a0044000500040805000200070088
:104a9000f9ff3a00140005006f8261008102700086
:104aa0008502710085027200000006008000780017
:104ab0005002be005003be004439de00f700b200d1
:104ac000f37f200003016100090032000218e100b9
:104ad00016003a0085017200830173008381730020
:104ae0000008200015003a004000200013003700a5
:104af00085017200830173008381730005003a0011
:104b000004a8be0006a8be00100020000b0037005d
:104b10000201e9000402420085824a0006034b00bc
:104b200087834b000748a300f9ff32000740a0002d
:104b300004a8be0006a8be00200020008000980047
:104b40009200980000000600881f78000304780097
:104b50000300e00007003d0060001000e080180046
:104b600060011900e081190002003b0001f02d00f6
:104b7000030037000400070008f0a70003f0a000be
:104b80004f04780000000600889fbe00008270007d
:104b900004027100048271002400320036432000b8
:104ba000c50020008383cf000a0039000541b10011
:104bb0008283cf00070039000541b1008183cf0017
:104bc000040039000541b1008083cf0001003900a5
:104bd0000541b10085c353006022b80012003200c5
:104be0000a003b0084827200610260008301d100f0
:104bf0000281d3008180d3000080d3000603e80047
:104c00008743e800f7ff3a00070037000000400044
:104c10008180480002014900838149000603e900c0
:104c20008743e900f9ff3a0089fc07004f04be0002
:104c300000000600889fbe008a9fbe008c9fbe00b9
:104c40000404b8000506b8008904460060854e00db
:104c50000606b8000a054600e0854e000706b800c3
:104c60008b054600040eb800890446000a854e00f4
:104c7000e0854d00050eb8000a0546008b854e0004
:104c8000060eb8008b0546000416b8000a0546005b
:104c90008b854e000516b8008b054600041eb80033
:104ca0008b0546000800be000a01be004f06be008c
:0c4cb0004f05be004f04be0000000600cf
:020000040000fa
:104cbc0025640000002400004d4300005445000012
:104ccc004d2c0000252e0000326600002a0000004a
:104cdc00244d000043410000434b00002c450000d4
:104cec004e4100002c3100002a000000244d000031
:104cfc0043410000434b00002c4500004e41000096
:104d0c002c3000002a000000244d0000434100001c
:104d1c00434b00002c530000415400002c31000088
:104d2c002a000000244d000043410000434b0000ca
:104d3c002c530000415400002c3000002a000000cd
:104d4c00484c00005245000046000000004800009e
:104d5c004c4500004e41000000000000484c000093
:104d6c005341000054000000002400004d4300009b
:104d7c00464200004b2c0000256400002c2500004e
:104d8c00642c0000256400002a000000535400002d
:104d9c00413a00002563000020540000454d0000fe
:104dac003a2500002e310000660000005250000031
:104dbc004d3a0000256400002c2500006400000022
:020000040000fa
:104dcc003801fa00201f9900311f9900c0c2b300ae
:104ddc00404798006800470021862000a1ef07009b
:104dec004e4090008000fb006800470081ef0700f8
:104dfc00300798003e0090000000e00003003200f5
:104e0c00be00900068004700008f50000000eb00cf
:104e1c00100798000c003700e80047001e009000b7
:104e2c000080400090407800c20620000e01410036
:104e3c001e00900000004100014878001e00900008
:104e4c000000e800100798001e0090009e0f500014
:104e5c00f1ff3500c00620000e0040001e0040008f
:104e6c008040eb0001487800c00620000e00400096
:104e7c00ae189100811f7800e1652a00811f78002f
:104e8c008aef0700e4875700e10f400002003a0068
:104e9c000000eb00200037001e00e800100798000f
:104eac000c0037001e0090001e0050000000e900ae
:104ebc00680147009e0090008100410091407800fd
:104ecc000000470001d099001e0090000000e8008f
:104edc00100798009e00900030062000808f500034
:104eec00f0ff3600000d20000e004000be189100af
:104efc00811f7800e1652a00811f78006bef0700a5
:104f0c00e4875700e10f400002003a000000eb007c
:104f1c0001003700100020000080fa00000006009d
:104f2c000400fa00000f7800110798001e00900092
:104f3c009e007800808f5000020035000000eb00ce
:104f4c00130037001e0078000000e00003003c0056
:104f5c001e0090000000e00002003d000000eb008d
:104f6c000b003700000c2e009e007800808f500044
:104f7c00040035009e00900000f42100808f50004a
:104f8c00020034000000eb0001003700100020008c
:104f9c000080fa00000006000200fa00000f780002
:104fac00504680009e007800808f500002003d002b
:104fbc005046800007003700604680009e00780055
:104fcc00808f5000020034006046800001003700e2
:104fdc001e0078000080fa00000006000800fa00ad
:104fec00b0002000f010880017e2a8001942a800b9
:104ffc008f00a8000080eb00401588003115800060
:10500c0000ff2f00008060003000b30030158800d6
:10501c00a862a900a682a900a042a80001158000e0
:10502c00000e200001007000001588001115800092
:10503c00f0cf2f000080600010158800a342a9005b
:10504c001115800030fc2f000080600010158800c6
:10505c002115800000fc2f0000806000f000b300e0
:10506c002015880021158000f00f2e0000806000b4
:10507c0000c0a00020158800a1e2a800d902a80059
:10508c00d202a8008c00a8008e00a800000020000e
:10509c00119e2400008fbe0000002000a1472400b8
:1050ac002007980031079800010e8000f0f02f00c7
:1050bc0000806000000e8800010e800030ff2f0081
:1050cc0000806000000e8800010e8000c0ff2f00e1
:1050dc0000806000000e8800c1e1a800c8a1a800f3
:1050ec00c8c1a8002e019000be0190001e00be0099
:1050fc005aed07000200200003f82300f9ec07002a
:10510c00bbed070000007800200e880022a2a8004a
:10511c002342a900101180003000b3001011880048
:10512c001111800030fe2f00008060008001b30060
:10513c001011880021e2a80042992200813e200033
:10514c00100020000200010061a1220010002000cc
:10515c0001000100429922004106200010002000ad
:10516c000200010042992200813821002000200019
:10517c00020001008cc0a800c602a900ca02a90046
:10518c00c622a900ca22a9000080fa00000006006d
:10519c000a00fa00889fbe008a9fbe008c9fbe004a
:1051ac002007980031079800420798002e009000c5
:1051bc00cf80de00a9ed070062662600634e240056
:1051cc00feed070069ed0700008fbe00f0ff2f0019
:1051dc00010020001e01be00800f5100818f59007c
:1051ec0007003c003e0090008000eb0001087800b6
:1051fc009e0078004e0090000108780042003700b5
:10520c001e00be00e00f5000e08f580002003d0071
:10521c0067004000e08048004d09dd004306de00d9
:10522c000c067100c38ede000c8fbe00f0ff2f0049
:10523c00010020001e01be00800f5100818f59001b
:10524c0007003c003e00900011002000010878008f
:10525c009e0078004e009000010878002a0037006c
:10526c001e00be00e00f5000e08f580002003d0011
:10527c0067004000e08048004d09dd004305de007a
:10528c000a057100c38dde000a8fbe00f0ff2f00ef
:10529c00010020001e01be00800f5100818f5900bb
:1052ac0007003c003e00900021002000010878001f
:1052bc009e0078004e009000010878001200370024
:1052cc001e00be00e00f5000e08f580002003d00b1
:1052dc0063004000e08048004e09dd004204de001f
:1052ec0008047100c28cde00088fbe003e009000e6
:1052fc0031002000010878009e0078004e009000dc
:10530c0001087800000000004f06be004f05be00eb
:10531c004f04be000080fa00000006000800fa00ee
:10532c0020079800310798000e80e80000017800f3
:10533c008e0078003e00900095ff07002e00900034
:10534c00e20f500014003200e40f50002200320033
:10535c00e10f500030003a000021ef001e007800f1
:10536c0000407800634060000080fb006300600038
:10537c004400dd0022088000f1fc2f008100610058
:10538c0001007000200888001e00900010088800a2
:10539c0005e1a800200037000621ef001e00780070
:1053ac0000407800634060000080fb0063006000f8
:1053bc004400dd0082088000f1fc2f0081006100b8
:1053cc0001007000800888001e00900060088800b2
:1053dc0011e1a800100037001421ef001e00780026
:1053ec0000407800634060000080fb0063006000b8
:1053fc004400dd00f2088000f1fc2f008100610008
:10540c0001007000f00888001e009000d008880091
:10541c001fe1a800000000000080fa000000060058
:10542c000200fa00000f78001e007800e20f500016
:10543c000b003200e40f500011003200e10f50005d
:10544c0017003a0000000000200480006800600093
:10545c000000e000fcff32008460a900100037005f
:10546c000000000021048000000420000080600087
:10547c000000e000fbff320084c0a90008003700e8
:10548c000000000031048000000220000080600059
:10549c000000e000fbff320086a0a9000000000025
:1054ac000080fa00000006000400fa00000f7800eb
:1054bc00214798001e007800701890009e0078001c
:1054cc002e419000827078001e00780070189000b9
:1054dc008000e8001e007800711898001e0078000b
:1054ec00f0189000c0032000808f500003003a0099
:1054fc001e0078008000eb00711898000080fa0004
:10550c00000006000400fa00000f78001107980054
:10551c008f00a9001e007800e01890001e00780093
:10552c0070189000808f500003003a008f00a80084
:10553c000000eb00150037001e007800601890008a
:10554c009e007800e14078001e0090000148780031
:10555c001e007800601890008000e8001e007800a3
:10556c00611898001e007800e0189000c00320001d
:10557c00808f500003003a001e0078008000eb0082
:10558c00611898008f00a800100020000080fa001d
:10559c00000006000600fa00200798008f00a90002
:1055ac002e009000f0189000010f78002e00900053
:1055bc00e0189000110798008f00a8001e009000c2
:1055cc009e007800808f5000030035001e00900074
:1055dc001e001000030037001e0090001e0010007b
:1055ec00c003b0000080fa00000006000600fa00bc
:1055fc0010079800210798000000eb00000f7800be
:10560c000000eb00000f78000d00370000000000d8
:10561c00c110800000202000008060000000e0002d
:10562c00fbff3a001e0078009e00900000804000b6
:10563c00104078000000fb00d01088001e0fe8001e
:10564c001e0078009e009000008040001040780002
:10565c000004e000040032002e0090009e00780050
:10566c00808f5000e9ff35000080fa000000060032
:10567c000200fa00004f78000000000000118000ca
:10568c00620060000000e000fcff3a001e00fb001e
:10569c00201188000080fa00000006000600fa00c5
:1056ac0010079800210798000000eb00000f78000d
:1056bc000000eb00000f7800060037001e00780099
:1056cc009e0090000080400010407800e8ff07002a
:1056dc001e0fe8001e0078009e0090000080400025
:1056ec00104078000004e000040032002e0090000e
:1056fc009e007800808f5000f0ff35000080fa008b
:10570c00000006000000fa0000c8b300d8ff070034
:10571c000080fa00000006000000fa0000ccb30084
:10572c00d3ff07000080fa00000006000400fa0016
:10573c00100798001e009000e10f5000030032008b
